:030000000208D81B
:0C08D800787FE4F6D8FD75810E02091F40
:100A650020206C6975207A6875207A687520646F16
:100A75000020206469616E7961203A302E3056205D
:010A85000070
:0B0AAF00010800020B0000020900001B
:100A3600C2958F807F057E00120A47D2957F057E7C
:010A460000AF
:100A4700D3EF9400EE940040147D6E7C00ED1D7092
:0D0A5700011CED4C70F7EF1F70E61E80E3F0
:010A6400226F
:080ABB00C294120A36C2952212
:080AC300D294120A36C29522FA
:0209B1008F0DA8
:1009B300AF05AC07E412080A12083EAB07AA067C8F
:1009C300007D0A1208758F0EAE02AF037C007D0A0C
:1009D300120875AB05E50D24C0FF120ABBE50E2412
:1009E30030FF120AC37F2E120AC3EB2430FF120A10
:0609F300C37F56020AC397
:10096400C2957F38120ABB7F0C120ABB7F06120A9B
:10097400BB7F01120ABB7F80120ABBE4FBEB900A27
:100984006593FF120AC37F327E00120A470BBB1025
:10099400EC7FC0120ABBE4FBEB900A7693FF120AC9
:0C09A400C37F327E00120A470BBB0EEC32
:0109B0002224
:0E0A8600C2B28F80C2B6120A43D2B6D2B222DA
:0E0A9400C2808F80C281120A43D282D2802299
:1009F90020901C120A432090163090FD0508E50846
:100A0900C394634003750863AD087F0A1209B120D6
:100A19009116120A432091103091FDD50803E4F58F
:0D0A290008AD087F0A1209B1AF08020A8665
:0D0AA200120964AF08120A861209F980F6E5
:1008000075F020800E75F010800575F0087D007E73
:10081000007F003392D530D5031208CAEC33401064
:10082000EF33FFEE33FEED33FDEC33FCD5F0ED227C
:0E083000E5F0247EA2D513CC92E7CDCEFF22B8
:10083E00EDD2E7CD33EC3392D524814006E4FFFEB2
:10084E00FDFC22FCE4CFCECDCC24E0501174FF8011
:10085E00EDC3CC13CCCD13CDCE13CECF13CF0470AE
:07086E00F030D5DE0208CADC
:1008E400020AA2E493A3F8E493A34003F68001F27E
:1008F40008DFF48029E493A3F85407240CC8C33315
:10090400C4540F4420C8834004F456800146F6DFE3
:10091400E4800B0102040810204080900AAFE47EBA
:10092400019360BCA3FF543F30E509541FFEE493D8
:10093400A360010ECF54C025E060A840B8E493A39F
:10094400FAE493A3F8E493A3C8C582C8CAC583CACA
:10095400F0A3C8C582C8CAC583CADFE9DEE780BE82
:010ABA00003B
:10087500BC000BBE0029EF8DF084FFADF022E4CC67
:10088500F875F008EF2FFFEE33FEEC33FCEE9DEC30
:10089500984005FCEE9DFE0FD5F0E9E4CEFD22ED76
:1008A500F8F5F0EE8420D21CFEADF075F008EF2FC0
:1008B500FFED33FD4007985006D5F0F222C398FDB1
:0508C5000FD5F0EA224E
:0E08CA00C3E49FFFE49EFEE49DFDE49CFC223F
:00000001FF
