:1008000004244484649C40300FC808082818000061
:1008100010080601824C20180601061820408000AE
:10082000404042CC0000FC040200FC0404FC000038
:100830000040201F20404F4442407F42444340003C
:10084000404042CC000808F8898E88888808080053
:100850000000003F9048300F004080403F00000003
:1008600000F8010200E2222222E2020202FE00005F
:1008700000FF0000001F0808081F0040807F0000E4
:10088000082848890E8878080800F80000FF000052
:10089000402010090619600000000F40807F000012
:1008A00080FC96E584FC0008C8494AC80808000096
:1008B000807F024C807F80601F00003F40407800B6
:1008C000100C2424242425E62424242424140C009D
:1008D000020202020242827F0202020202020200BD
:1008E0000000F888888888FF88888888F8000000D9
:1008F00000001F080808087F888888889F80F0000B
:100900000000FE0282828282FA8282828282020059
:1009100080601F40404040407F404044584040007D
:1009200000000000000000000000000000000000C7
:10093000000036360000000000000000000000004B
:1009400000E010080810E0000000000000000000B7
:10095000000F102020100F00000000000000000019
:100960000878880000C83808000000000000000077
:10097000000007380E010000000000000000000029
:100B2900E4F580C2A2D2A3D2A4E58020E7FBC2A447
:010B39002299
:100B3A00120B29C2A2C2A38F80D2A40000C2A4228F
:100B4A00120B29D2A2C2A38F80D2A40000C2A4226F
:060B66004307B8020B3A40
:060B6C004307C0020B3A32
:060B7200430740020B3AAC
:060B780043073E020B3AA8
:100B0F00EF14600C14600E2402700EC2A0C2A1225A
:0A0B1F00C2A0D2A122D2A0C2A122DE
:100AF000120B0FE4FEAF06120B66E4FF120B72E45A
:0E0B0000FDE4FF120B4A0DBD40F70EBE08E7E4
:010B0E0022C4
:100ACF00120B29E4FF120B0F120B78E4FF120B0F1E
:100ADF000F120B78E4FF120B0F120AF0E4FF020B58
:010AEF006C9A
:020A5300AC03F2
:100A5500120B0FAF05120B66AF04120B72E4FEAB5F
:100A65000BAA0CA90D8E82758300120AA2FF120B28
:100A75004A0EBE10EAED04FF120B66AF04120B72AC
:100A8500E4FEEE2410F582E433F583AB0BAA0CA942
:0C0A95000D120AA2FF120B4A0EBE10E662
:010AA1002232
:10098000120ACFE4FF120AF0E4FF120B6C750BFFA2
:10099000750C08750D007B20E4FD7F01120A53756C
:1009A0000BFF750C08750D207B307F01120A537503
:1009B0000BFF750C08750D40E4FB7F02120A53759E
:1009C0000BFF750C08750D607B107F02120A5375C2
:1009D0000BFF750C08750D80E4FB7D027F01120A88
:1009E00053750BFF750C08750DA07B107F01120A63
:1009F00053750BFF750C08750DC07B207F01120A23
:100A000053750BFF750C08750DE07B307F01120AE2
:100A100053750BFF750C09750D00E4FB7F02120A7C
:100A200053750BFF750C09750D207B107F02120AA0
:100A300053750BFF750C09750D407B207F02120A60
:100A400053750BFF750C09750D607B307F02120A20
:030A50005380FED2
:03000000020B5A96
:0C0B5A00787FE4F6D8FD75810D0209805B
:100AA200BB010CE58229F582E5833AF583E0225009
:100AB20006E92582F8E622BBFE06E92582F8E22253
:0D0AC200E58229F582E5833AF583E493226D
:00000001FF
